:100000000C9415030C943D030C943D030C943D0398
:100010000C943D030C943D030C943D030C94A629D1
:100020000C943D030C943D030C943D030C943D0350
:100030000C943D030C943D030C943D030C943D0340
:100040000C945A2A0C943D030C94282A0C94022AEE
:100050000C943D030C943D030C943D030C943D0320
:100060000C94A42A0C943D03253032752F25303290
:10007000752F25303475000000000023002600296C
:100080000000000008000201000003040700000057
:10009000000000000000000000240027002A0046A5
:1000A00002000000FF0800053E5B4F5B3E053E6B13
:1000B0004F6B3E051C3E7C3E1C05183C7E3C1805E3
:1000C0001C577D571C051C5E7F5E1C0400183C18E5
:1000D00005FFE7C3E7FF040018241805FFE7DBE787
:1000E000FF0530483A060E05262979292605407F66
:1000F00005050705407F05253F055A3CE73C5A05A5
:100100007F3E1C1C0805081C1C3E7F0514227F2214
:100110001405FFFFFFFFFF05F0F0F0F0F003FFFF15
:10012000FF05000000FFFF050F0F0F0F0F0508046C
:100130007E04080510207E20100508082A1C0805EA
:10014000081C2A080805AA005500AA05AA55AA55A0
:10015000AA0530383E383005060E3E0E0602000075
:10016000015F0307000705147F147F1405444AFF4D
:100170004A32056313086463053649493648010766
:10018000033E41410341413E05082A1C2A08050857
:10019000083E08080260E0040808080802606005DC
:1001A0006010080403053E5149453E0304027F05E3
:1001B0007149494946054149494936050F0808082A
:1001C0007F054F49494931053E49494930050301F9
:1001D00001017F05364949493605064949493E022C
:1001E0006C6C026CEC030814220414141414032223
:1001F0001408050159090906053E415D594E057E61
:100200000909097E057F49494936053E4141414179
:10021000057F4141413E057F49494941057F090923
:100220000901053E41414979057F0808087F0341DE
:100230007F4105304141413F057F08142241057F40
:1002400040404040057F020C027F057F0408107F7C
:10025000053E4141413E057F09090906053E4141F0
:10026000617E057F0919294605464949493105013D
:10027000017F0101053F4040403F051F2040201FF6
:10028000053F4038403F05631408146305030478B4
:100290000403056151494543037F414105030408B7
:1002A00010600341417F0504020102040480808044
:1002B0008003010204043844447C047F444438042D
:1002C00038444444043844447F04385454580404A3
:1002D0007E05010418A4A47C047F040478017D0336
:1002E00084857C047F102844017F057C0478047891
:1002F000047C040478043844443804FC242418049E
:10030000182424FC047C04040804585454340304C2
:100310007F04043C40407C041C20407C053C403071
:10032000403C046C10106C041CA0A07C0464545469
:100330004C0408364141017F044141360804020162
:100340000201057F4141417F053E55555541053824
:1003500044443844057C2A2A3E14057E02020606DF
:1003600005027E027E020563554941630538444417
:100370003C0405407E201E200506027E0202086322
:1003800013086463006060052A2A2A2A2A03514A56
:100390004403444A51050000FF010303E080FF05C8
:1003A0003612362436030205020218180210100510
:1003B0003040FF0101041F01011E0000000009017F
:1003C000017F017F020C027F00000000000001009D
:1003D000017D0418247E2404447E454105221C141A
:1003E0001C2205012A7C2A010177044E5555390348
:1003F000020002077E81BDA5A5817E0326292F0567
:1004000008142A1422040808081803080808077E9C
:1004100081BD95A9817E050101010101030205024B
:1004200003242E24031915120315150A02020104D0
:10043000F82040780506097F017F02181804008023
:10044000A0C003121F10032629260522142A14080F
:1004500008402F1008041E117C08402F1008046269
:10046000554C0915553F1008041E117C05304848AD
:100470004D40057815161478057814161578057A08
:100480001514157A0578161516790578151415784A
:10049000057814151478077E09097F494941059E9E
:1004A000A1612121057C54554644057C54564544A0
:1004B000057E55544546057C5554454403457E44C8
:1004C00003447E4503467D4603457C4505087F4938
:1004D000413E057C0A11227D0538444546380538E1
:1004E00044464538053A4544453A05384645463977
:1004F000053845444538052214081422057C625A03
:10050000463E053C4041423C053C4042413C053CA6
:100510004241423C053C4140413C0502047A05020F
:10052000043F12120C057E49494E30043845467C82
:10053000043844467D043846457E043A45467D04E9
:100540003845447D04304A4D7A0720545438545479
:1005500058049CA2622204385556580438545659FF
:10056000043856555A043855545902017A027A0112
:10057000030279020302780204304B4B3C047A09EF
:100580000A710430494A300430484A3104304A493B
:10059000320432494A3104394444390508082A08EA
:1005A000080438544C3804384142780438404279C1
:1005B000043842417A043A40407A0418A0A27904EF
:1005C000FC282810041AA0A07A253032753A25306C
:1005D000327500253032752F253032750053656332
:1005E0003A253032750001020408102040800102D3
:1005F000040810200102040810200000000025005B
:1006000028002B000404040404040404020202026F
:100610000202030303030303021F1C1F1E1F1E1FEE
:100620001F1E1F1E1F00C32BCA3211241FBECFEF77
:10063000D8E0DEBFCDBF12E0A0E0B1E0E0E0F1E73E
:1006400002C005900D92A036B107D9F724E0A0E6CC
:10065000B2E001C01D92A632B207E1F713E0C4E197
:10066000D3E004C02197FE010E943837C331D1077F
:10067000C9F70E94222C0C9473380C9400008295C8
:1006800090E09C0135952795359527952373880F24
:10069000991F880F991F8C7C282B30E0C9019595F4
:1006A00087958575220F331F2A7A822B08959C0126
:1006B00040910F045091100490E084E46091120482
:1006C000961748F4FA01989FE00DF11D1124378B1D
:1006D000268B9F5FF3CF0895DC0115961C9215972A
:1006E00014961C92149713961C9213971C9281E0F7
:1006F00011968C93119711968C911197282F215058
:10070000330BF901E75EF94FE491823009F4EF5FB2
:10071000E11102C08F5FECCF81E012968C930895B7
:10072000CF93DF93262F2695382F70E0680F791F1F
:10073000FC018E2F831B821750F481916150710947
:10074000DB019C91EF01219798838C93F2CFDF918D
:10075000CF910895482FFC018E2F841B8617E0F45B
:10076000219130E0C901959587958575220F331F3A
:100770002A7A822B90E09C0135952795359527950F
:100780002373880F991F880F991F8C7C822B829569
:10079000DF0111978C93E0CF089508950895AF92EB
:1007A000BF92CF92DF92EF92FF920F931F93CF935E
:1007B000DF936C017B018B01040F151FEB015E01C0
:1007C000AE18BF08C017D10759F06991D601ED9155
:1007D000FC910190F081E02DC6010995892B79F7F4
:1007E000C501DF91CF911F910F91FF90EF90DF90A6
:1007F000CF90BF90AF900895FC01538D448D252F6D
:1008000030E0842F90E0821B930B541710F0CF96AA
:10081000089501970895FC01918D828D981761F0DC
:10082000A28DAE0FBF2FB11D5D968C91928D9F5FF3
:100830009F73928F90E008958FEF9FEF0895FC01D2
:10084000918D828D981731F0828DE80FF11D858D85
:1008500090E008958FEF9FEF0895FC01918D228D18
:10086000892F90E0805C9F4F821B91098F7399279D
:1008700008958CE493E00E942D0421E0892B09F473
:1008800020E0822F089580E090E0892B29F00E94DB
:10089000390481110C9400000895FC01A48DA80F67
:1008A000B92FB11DA35ABF4F2C91848D90E00196B2
:1008B0008F739927848FA689B7892C93A089B189D2
:1008C0008C91837080648C93938D848D981306C073
:1008D0000288F389E02D80818F7D80830895EF92D7
:1008E000FF920F931F93CF93DF93EC0181E0888FEA
:1008F0009B8D8C8D98131AC0E889F989808185FFBA
:1009000015C09FB7F894EE89FF896083E889F9895B
:1009100080818370806480839FBF81E090E0DF915D
:10092000CF911F910F91FF90EF900895F62E0B8DB0
:1009300010E00F5F1F4F0F731127E02E8C8D8E116B
:100940000CC00FB607FCFACFE889F989808185FFD2
:10095000F5CFCE010E944D04F1CFEB8DEC0FFD2FB2
:10096000F11DE35AFF4FF0829FB7F8940B8FEA898D
:10097000FB8980818062CFCFCF93DF93EC01888D9C
:100980008823B9F0AA89BB89E889F9898C9185FD0A
:1009900003C0808186FD0DC00FB607FCF7CF8C9198
:1009A00085FFF2CF808185FFEDCFCE010E944D04FF
:1009B000E9CFDF91CF910895833081F028F4813021
:1009C00099F08230A9F008958730A9F08830C9F0F5
:1009D0008430B1F4809180008F7D03C080918000CD
:1009E0008F7780938000089584B58F7784BD0895B4
:1009F00084B58F7DFBCF8091B0008F778093B0005E
:100A000008958091B0008F7DF9CFCF93DF93282F89
:100A100030E0F901EF57FF4F8491F901EA51FA4FA5
:100A2000D491F901EC5FF94FC491CC23A1F081116D
:100A30000E94DC04EC2FF0E0EE0FFF1FE958FF4F9F
:100A4000A591B491EC91ED2381E090E009F480E070
:100A5000DF91CF91089580E090E0FACF1F93CF937C
:100A6000DF93282F30E0F901EF57FF4F8491F90110
:100A7000EA51FA4FD491F901EC5FF94FC491CC23BC
:100A8000A9F0162F81110E94DC04EC2FF0E0EE0F8C
:100A9000FF1FE650FA4FA591B4918FB7F894EC91EF
:100AA000111108C0D095DE23DC938FBFDF91CF9169
:100AB0001F910895DE2BF8CF9091000189130BC090
:100AC000E8E1F6E0E4919FEF90930001E13049F016
:100AD00028F0E23061F060E00C942E0510926E0078
:100AE000FACF90916F009D7F90936F00F4CF90911B
:100AF00070009D7F9093700091E09093B000909172
:100B0000B100987F94609093B1001092B300E3CF4E
:100B1000CF93DF9390E0FC01EA51FA4F24918C5F70
:100B2000994FFC0184918823C9F090E0880F991FA8
:100B3000FC01EB56FF4FA591B491FC01E650FA4F32
:100B4000C591D49161110DC09FB7F8948C912095F7
:100B500082238C938881282328839FBFDF91CF91A4
:100B60000895623051F49FB7F8943C91822F80959C
:100B700083238C93E8812E2BEFCF8FB7F894EC91E1
:100B80002E2B2C938FBFEACF8E3008F08E508770BB
:100B9000806480937C0080917A00806480937A00E6
:100BA00080917A0086FDFCCF809178009091790049
:100BB00008953FB7F8948091B6029091B702A09142
:100BC000B802B091B90226B5A89B05C02F3F19F015
:100BD0000196A11DB11D3FBFBA2FA92F982F8827BD
:100BE000BC01CD01620F711D811D911D42E0660F98
:100BF000771F881F991F4A95D1F708958F929F926A
:100C0000AF92BF92CF92DF92EF92FF924B015C01C5
:100C10000E94D9056B017C010E94D9056C197D09E0
:100C20008E099F09683E734081059105A8F321E074
:100C3000821A9108A108B10888EEC80E83E0D81E78
:100C4000E11CF11C81149104A104B10429F7FF9067
:100C5000EF90DF90CF90BF90AF909F908F900895CE
:100C6000DC0150E0E9E1F6E081E0861730F4949190
:100C7000490F511D8F5F3196F8CF633038F0CD01A9
:100C800083709927892B11F44F5F5F4F9D012D5F72
:100C90003F4F36952795369527956DE671E0A69FCF
:100CA000C001A79F900DB69F900D11240197820F50
:100CB000931F840F951F0895FC019F012F5F3F4FE5
:100CC00080818F7E803269F080E02AE0919130ED62
:100CD000390F3A3040F4829F900D112480ED890F36
:100CE000F5CFF901EACF089520918E02260F332720
:100CF000331F21323105ECF420914603FC0190E0D2
:100D000080E0243069F082E00895A0918E02219164
:100D1000AC0142595D4FA40FB52FB11D2C93019624
:100D2000861798F380918E02680F60938E0280E0A0
:100D3000089581E008951092460381E08093250391
:100D40001092200361E082E10E942E0561E083E1C0
:100D50000E942E05E9EBF0E080818E7F8083808108
:100D60008D7F808388E48093B80085E48093BC0005
:100D70000895CF93DF9391E090936D028823B9F0AB
:100D8000C091B800D091BA008091BC008A7B80935A
:100D9000BC0060E082E10E942E0560E083E10E94D9
:100DA0002E050E949B06D093BA00C093B800DF9135
:100DB000CF910895CF92DF92EF92FF920F931F93FE
:100DC000CF93C82F813208F096C00E94D9056B01DD
:100DD0007C0180914603811169C081E080934603C4
:100DE000809325039FEF90932403109223039C0F7D
:100DF000909322038093210380912103806D80933F
:100E0000210380912003813009F077C010922003E4
:100E10000E94D9056B017C01809121038093BB0066
:100E20008091480390914903A0914A03B0914B03EC
:100E3000892B8A2B8B2BA1F00E94D90500914803A6
:100E40001091490320914A0330914B036C197D099D
:100E50008E099F09061717072807390708F447C0A6
:100E60008091BC0083FDD8CF85EC8093BC000E94AC
:100E7000D9056B017C0180914603813009F43FC0A4
:100E8000809123038C1710F4C0912303A0E0B3E0FA
:100E9000E6E2F3E080E08C1354C08C2FCF911F91D9
:100EA0000F91FF90EF90DF90CF90089580914803CD
:100EB00090914903A0914A03B0914B03892B8A2B4F
:100EC0008B2B09F486CF0E94D9050091480310911D
:100ED000490320914A0330914B036C197D098E0917
:100EE0009F09061717072807390708F072CF809166
:100EF00047030E94B906C0E0D0CF85EEB6CF8091FF
:100F0000480390914903A0914A03B0914B03892B68
:100F10008A2B8B2B09F4AFCF0E94D905009148038F
:100F20001091490320914A0330914B036C197D09BC
:100F30008E099F09061717072807390708F09BCF66
:100F4000D6CF9D9191938F5FA6CF8F929F92AF92B4
:100F5000BF92CF92DF92EF92FF920F931F93CF93A6
:100F6000DF93D091FF02D13208F0D7C0182FC09183
:100F7000FE020E94D9056B017C018091460381111C
:100F80006BC082E080934603109325038FEF80931C
:100F9000240310922303D0932203AEEDB2E0E0E0ED
:100FA000F3E080E0D81391C01092210380912103D7
:100FB000CC0FC82BC093210380912003813009F00E
:100FC00088C0109220030E94D9056B017C0180919A
:100FD00021038093BB008091480390914903A09125
:100FE0004A03B0914B03892B8A2B8B2BA1F00E94D3
:100FF000D905009148031091490320914A0330918B
:101000004B036C197D098E099F09061717072807DE
:10101000390708F442C08091BC0083FDD8CF85EC2D
:101020008093BC000E94D9056B017C01809146032E
:10103000823009F450C0809124038F3F09F46FC0BF
:1010400080912403803209F46CC0809124038033A2
:1010500009F469C084E026C0809148039091490357
:10106000A0914A03B0914B03892B8A2B8B2B09F457
:1010700084CF0E94D9058090480390904903A090A6
:101080004A03B0904B036C197D098E099F0986169F
:101090009706A806B90608F070CF809147030E9412
:1010A000B90685E01092DD021092FF021092DC0278
:1010B000DF91CF911F910F91FF90EF90DF90CF9034
:1010C000BF90AF909F908F9008959D9191938F5F67
:1010D00069CF85EEA5CF8091480390914903A091F7
:1010E0004A03B0914B03892B8A2B8B2B09F49ECF9B
:1010F0000E94D905009148031091490320914A03A9
:1011000030914B036C197D098E099F09061717074B
:101110002807390708F08ACFC0CF81E0C3CF80E02D
:10112000C1CF82E0BFCF83E0BDCF1F93CF93DF93CA
:10113000162FCFE1D4E0A881B98191E09093DC0231
:1011400098E69093FE021092DD021092FF02ED915C
:10115000FC9111970190F081E02D682FCD01099548
:1011600088819981DC01ED91FC910190F081E02D65
:10117000612F099581E00E94A5078A83DF91CF91B5
:101180001F9108950895E091DB028091DA02E8173B
:1011900030F4F0E0EA5DFC4F808190E008958FEF3D
:1011A0009FEF08959091DB028091DA022FEF3FEFDD
:1011B000981748F4E92FF0E0EA5DFC4F208130E019
:1011C0009F5F9093DB02C90108958091DA029091AC
:1011D000DB02891B990B0895CF92DF92EF92FF9269
:1011E0000F931F93CF93DF937C01CB018A01209152
:1011F000DC02222389F0EB016B01C40ED51ECC1555
:10120000DD0569F06991D701ED91FC910190F081C4
:10121000E02DC7010995F3CF642F0E947406C80121
:10122000DF91CF911F910F91FF90EF90DF90CF90C2
:101230000895CF93DF931F92CDB7DEB769832091D6
:10124000DC022223F9F02091FF02203258F021E045
:1012500030E0FC013383228390E080E00F90DF9147
:10126000CF9108958091DD02E82FF0E0E252FD4F2A
:10127000998190838F5F8093DD028093FF0281E0EC
:1012800090E0ECCF61E0CE0101960E947406F7CFAA
:10129000CF92DF92EF92FF921F93CF93DF93DC0107
:1012A00058961C92589788E059968C9359975A965D
:1012B0001C925A975C961C921E925B978FEF90E05F
:1012C0005E969C938E935D9790961C921E925F976C
:1012D00056968D919C915797009709F478C0FC0120
:1012E0002491263409F031C03196E491E13009F4BB
:1012F00053C022E030E0E23021F5FC013296249127
:101300003196E49130E0322F22272E0F311D5C966A
:101310003C932E935B97FC01349624913196E49193
:1013200030E0322F22272E0F311D5E963C932E93F4
:101330005D97FC013696E4915996EC93599727E016
:1013400030E090963C932E935F975F96CD90DC9023
:101350009097F12CE12C5B962D913C915C975D96DA
:10136000CD91DC915E9710E0C217D30770F1FC01BC
:10137000EC0DFD1D4491141708F4142F50E070E09B
:1013800060E04F5F5F4F6F4F7F4FC40ED51EE61E6C
:10139000F71E2F5F3F4FE8CFFC013296E491F0E05B
:1013A0005C96FC93EE935B97FC013396E491F0E03E
:1013B0005E96FC93EE935D97FC013496E49159960A
:1013C000EC93599725E030E0BCCF5A961C93DF91FF
:1013D000CF911F91FF90EF90DF90CF900895FC0187
:1013E0008385681738F52485358579E0679F200D5A
:1013F000311D1124848150E09381992371F0882359
:1014000031F087E090E0FC01E41BF50BAF01240F05
:10141000351FF90180810C943F03882331F087E068
:1014200090E0BC01641B750BAB01240F351FF90163
:101430008081089580E008958F929F92AF92BF922D
:10144000CF92DF92EF92FF92CF93DF93FC01242F94
:1014500030E08381882309F447C087E090E0821B55
:10146000930B91E001C0990F8A95EAF7838568177D
:1014700008F040C024853585A90189E0689F400DAA
:10148000511D1124BA01E48130E020E080E0A7E0A2
:10149000B0E0C12CD12C7601C394F22FAD01421BD8
:1014A000530BE11101C0A901460F571FEA01488102
:1014B000492351F04601570104C0880C991CAA1C0D
:1014C000BB1CFA95D2F788292F5F3F4F2830310592
:1014D00021F7DF91CF91FF90EF90DF90CF90BF90F9
:1014E000AF909F908F90089591E001C0990F4A9519
:1014F000EAF7BCCF80E0EDCFFC01228121110C94F2
:101500001C0A0C94EF09462F477066956695669500
:101510000C947C0AFC01848D90A1A6A5B7A591FD31
:1015200015C0882381F0808D918D0597A9F481E005
:1015300024A535A52A173B0709F080E080AB119759
:10154000B7A7A6A70895828D938DEFCF882379F052
:10155000808D918D059759F7CD01019697A786A7A4
:1015600081E011969C91911180E080AB0895828D6D
:10157000938DF0CFFC01868997898230910591F493
:101580002389348936A325A331A720A7823091056A
:1015900061F42189328933A722A7029749F08FEF9E
:1015A00087A3089521893289EDCF23893489F3CF28
:1015B00081E0F6CFCF93DF9300D0CDB7DEB769835C
:1015C0001A82DC01ED91FC910084F185E02DBE01D1
:1015D0006F5F7F4F099581E090E00F900F90DF9152
:1015E000CF910895089590E080E00895DF92EF9202
:1015F000FF920F931F93CF93DF9300D000D000D0C2
:10160000CDB7DEB780911F049091200421E0209394
:10161000DC0228E62093FE021092DD021092FF0207
:10162000DC01ED91FC910190F081E02D60E00995E5
:1016300081E00E94A50780932104882321F0CE0138
:1016400001960E946C0387E00E94DA061092DB028A
:101650008093DA02873039F084E080932104CE0150
:1016600001960E946C0380911F0490912004DC017C
:10167000ED91FC910284F385E02D09958F77282F59
:1016800030E0F4E035952795FA95E1F7922F990F20
:10169000990F022F091B000F080F80911F049091D2
:1016A0002004DC01ED91FC910284F385E02D099585
:1016B0009C01A4E035952795AA95E1F72F70332773
:1016C000922F990F990FF22EF91AFF0CF80E8091B4
:1016D0001F0490912004DC01ED91FC910284F385BC
:1016E000E02D099586FF80C0982F9F71292F30E04B
:1016F000E4E035952795EA95E1F7322F330F330F64
:10170000122F131B110F190F85FD145F80911F04F9
:1017100090912004DC01ED91FC910284F385E02D91
:10172000099580911F0490912004DC01ED91FC91BA
:101730000284F385E02D09959C0194E03595279569
:101740009A95E1F72F703327922F990F990FE22E78
:10175000E91AEE0CE80E80911F0490912004DC0140
:10176000ED91FC910284F385E02D09959C0144E004
:10177000359527954A95E1F72F703327922F990FCA
:10178000990FD22ED91ADD0CD80E80911F0490919A
:101790002004DC01ED91FC910284F385E02D099594
:1017A000AC0164E0559547956A95E1F74F70552770
:1017B000942F990F990F242F291B220F280F3D2DAD
:1017C0004E2D512F6F2D702F80E090E026960FB692
:1017D000F894DEBF0FBECDBFDF91CF911F910F9167
:1017E000FF90EF90DF9008959C0174E03595279568
:1017F0007A95E1F72F703327922F990F990F122FB7
:10180000191B110F180F82CFCF93A0911F04B09115
:10181000200491E09093DC0298E69093FE021092EF
:10182000DD021092FF02ED91FC9111970190F08181
:10183000E02D682FCD01099581E00E94A507C82FF2
:101840008093210481111CC081E00E94DA0610926D
:10185000DB028093DA02813031F084E0809321044E
:101860008C2FCF91089580911F0490912004DC016A
:10187000ED91FC910284F385E02D0995C82FF0CFFE
:10188000C0E0EECF80E00E94040C87FD04C081E040
:1018900090912104911180E008950F931F93CF93AD
:1018A000DF93EC0180E00E94040C082F80911F045C
:1018B0009091200421E02093DC0228E62093FE0290
:1018C0001092DD021092FF02DC01ED91FC9101907B
:1018D000F081E02D60E00995A0911F04B0912004F3
:1018E0002D811AE0822F612F0E941837682F660F12
:1018F000680F660F620F0078602BED91FC911197D5
:101900000190F081E02DCD010995A0911F04B091C7
:1019100020042C81822F612F0E941837682F660FB8
:10192000680F660F620FED91FC9111970190F081A5
:10193000E02DCD010995A0911F04B09120042B81C9
:10194000822F612F0E941837682F660F680F660F6D
:10195000620FED91FC9111970190F081E02DCD0186
:10196000099588814A81698190E00E943006069637
:1019700067E070E00E942437682F811101C067E0A2
:1019800080911F0490912004DC01ED91FC91019065
:10199000F081E02D0995A0911F04B09120042A81C7
:1019A0001AE0822F612F0E941837682F660F680F88
:1019B000660F620FED91FC9111970190F081E02D7F
:1019C000CD010995A0911F04B09120042981822F97
:1019D000612F0E941837682F660F680F660F620F1D
:1019E000ED91FC9111970190F081E02DCD010995C9
:1019F000A0911F04B09120042881822F612F0E94A2
:101A00001837682F660F680F660F620FED91FC9113
:101A100011970190F081E02DCD01099581E00E94A0
:101A2000A50780932104DF91CF911F910F91089515
:101A3000CF92DF92EF92FF920F931F93CF93DF939A
:101A4000EC0188858823A1F080916C02882361F0E5
:101A50008FB7F89490916C02913041F59DB39093BB
:101A60006B029DB39DBB8FBF80E58CBD81E08DBDBA
:101A700060E08F810E942E0588858823D1F030E0B8
:101A800020E08B8590E0880F991F28173907C8F54B
:101A9000EE85FF85E20FF31F80818EBD00000DB43F
:101AA00007FEFDCF8EB52F5F3F4FEBCF80936B02CC
:101AB000DBCF10E000E08B8590E0880F991F0817BE
:101AC0001907F8F4EE85FF85E00FF11FE080DE8056
:101AD000CD8088E0F82E6E2D661F6627661F8C2D40
:101AE0000E942E05EE0C61E08D2D0E942E0560E017
:101AF0008D2D0E942E05FA94F110EDCF0F5F1F4F30
:101B0000DACF61E08F810E942E058885882371F0ED
:101B100080916C02882351F09FB7F89420916C0259
:101B200080916B02213059F48DBB9FBFDF91CF9123
:101B30001F910F91FF90EF90DF90CF9008958FBF8E
:101B4000F5CFFB0101900020E9F73197AF01461B6B
:101B5000570BDC01ED91FC910280F381E02D09949B
:101B600065E471E08CE493E00C94A10D8F929F9258
:101B7000AF92BF920F931F93CF93DF93CDB7DEB792
:101B8000A1970FB6F894DEBF0FBECDBF19A24230A9
:101B900008F44AE08E010F5D1F4F842E912CB12C6A
:101BA000A12CA50194010E94E736E62FB901CA01D4
:101BB000EA3004F5E05DD801EE938D01232B242B50
:101BC000252B79F790E080E0109729F0BD018CE497
:101BD00093E00E94A10DA1960FB6F894DEBF0FBE50
:101BE000CDBFDF91CF911F910F91BF90AF909F908C
:101BF0008F900895E95CDFCFCF93DF93BC018CE435
:101C000093E00E94A10DEC010E94B00D8C0F9D1F6E
:101C1000DF91CF9108956115710511F00C94A10D1C
:101C200090E080E008950F931F93CF93DF93CDB79B
:101C3000DEB764970FB6F894DEBF0FBECDBFFC01D0
:101C400085811F928F9384811F928F9383811F922E
:101C50008F93808190E08053984F9F938F938281E0
:101C60001F928F9381811F928F9388E690E09F93BC
:101C70008F931F9284E18F938E010F5F1F4F1F93ED
:101C80000F930E94D033B8018CE493E00E940B0EB6
:101C90000FB6F894DEBF0FBECDBF64960FB6F894B2
:101CA000DEBF0FBECDBFDF91CF911F910F91089581
:101CB00085ED8093BC008091480390914903A091E9
:101CC0004A03B0914B030796A11DB11D23E0B695C1
:101CD000A795979587952A95D1F72091BC0024FD6B
:101CE00003C0109246030895409148035091490360
:101CF00060914A0370914B03452B462B472B69F3A8
:101D00000097A105B10541F02AE22A95F1F700C03C
:101D10000197A109B109E1CF809147030C94B9065D
:101D2000FC01438550E0440F551F70E060E086855C
:101D300097850C946C38BF92CF92DF92EF92FF920E
:101D40000F931F93CF93DF93FC012385621708F055
:101D50004EC0EC01F9E06F9F70011124D12CC12C11
:101D6000062F10E0BB24B394BC0CEC85FD85EE0D72
:101D7000FF1D808590E00C2C02C0959587950A94F4
:101D8000E2F780FF27C0CE010E94900E8B85815024
:101D9000990B801B910B880F991F2E853F85820F11
:101DA000931FFC01B082EC85FD85EE0DFF1DEC0D4F
:101DB000FD1D40818B858150990B801B910B880FF5
:101DC000991F2E853F85820F931FFC014183CE0111
:101DD0000E94180DFFEFCF1ADF0A88E0C816D10461
:101DE00009F68C859D85E80EF91EF7011086DF91B6
:101DF000CF911F910F91FF90EF90DF90CF90BF9008
:101E000008950F931F93CF93DF93EC01162F042FA8
:101E1000822F9B8191110E943F0399E0199F9001AD
:101E20001124AC85BD85A20FB31F602F70E09C818B
:101E300047E050E0461B570B911101C0AB01A40FC6
:101E4000B51F8C93EC85FD85E20FF31F20858C81F7
:101E50008823F1F047E050E0461B570B81E090E00B
:101E6000A0E0B0E004C0880F991FAA1FBB1F4A95CD
:101E7000D2F7822B80878C89882321F0612FCE01B5
:101E80000E949B0E81E0DF91CF911F910F910895E9
:101E900081E090E0A0E0B0E004C0880F991FAA1F85
:101EA000BB1F0A95D2F7E5CF9F92AF92BF92CF9218
:101EB000DF92EF92FF920F931F93CF93DF93FC017A
:101EC00089E0689FE001112481E090E0A0E0B0E0AB
:101ED0006C017D01042E04C0CC0CDD1CEE1CFF1C2B
:101EE0000A94D2F7BC2C7C2D709507E010E0041BFF
:101EF000110904C0880F991FAA1FBB1F0A95D2F7AA
:101F0000A82E382F309590E080E0022F10E027E0D7
:101F1000E22EF12CAC01A485B585AC0FBD1F248148
:101F200093806801082E02C0D594C7940A94E2F702
:101F3000C0FE2AC0222319F0A701481B590BA40F89
:101F4000B51F2C914B2D91104A2D242B2C930196CB
:101F500088309105F9F684859585C80FD91F8FEFD4
:101F600088878489882319F0CF010E949B0E81E025
:101F7000DF91CF911F910F91FF90EF90DF90CF9065
:101F8000BF90AF909F900895222319F0A701481B9E
:101F9000590BA40FB51F2C91472F9110432F2423C9
:101FA000D5CFFC0152813385552321F0631730F4DE
:101FB0000C94540F631710F40C94010F80E00895F3
:101FC000242F462F477033E0769567953A95E1F7D1
:101FD0000C94D10FFC0152813385552331F06317E6
:101FE00050F4483041F00C94010F631720F448304E
:101FF00011F00C94540F80E00895CF92DF92EF928D
:10200000FF920F931F93CF93DF93FC01722F828176
:102010005385882309F45DC0651708F0BEC02830D9
:1020200009F4BBC009E0609F700111248485958587
:102030008E0D9F1D50E0A22FB0E024812223B9F124
:1020400027E030E0E901C41BD50BAE012A1B3B0B96
:10205000480F591FEA014881820F931FEC01488302
:1020600084859585E701C80FD91F28858481882339
:1020700001F147E050E04A1B5B0B81E090E0A0E0FB
:10208000B0E004C0880F991FAA1FBB1F4A95D2F762
:10209000822B88878489811118C081E0DF91CF91DC
:1020A0001F910F91FF90EF90DF90CF9008959D01C9
:1020B000CFCF81E090E0A0E0B0E004C0880F991F8E
:1020C000AA1FBB1F7A95D2F7E3CFCF010E949B0EC8
:1020D000E4CFA42FB0E09381992309F44FC027E007
:1020E00030E02A1B3B0B91E001C0990F2A95EAF7DB
:1020F0006517A0F6783091F2D9E06D9FA001112408
:1021000001E010E020E030E068017901072E04C012
:10211000CC0CDD1CEE1CFF1C0A94D2F7DC2DCC2D60
:10212000C095A7E0B0E0A71BB10904C0000F111FC4
:10213000221F331FAA95D2F7F02E009530E020E041
:10214000A485B585A40FB51FA20FB31F8C91738111
:10215000182F1923D9F0711117C07D2F872B8C935D
:102160002F5F3F4F2830310559F784859585480FFB
:10217000591F8FEFDA0118968C938CCF91E001C034
:10218000990F4A95EAF7B4CF7F2DE8CF711103C0BC
:102190007C2F8723E4CF702FFCCF80E07FCF8F92FE
:1021A0009F92AF92BF92CF92DF92EF92FF920F93E6
:1021B0001F93CF93DF93CDB7DEB728970FB6F89470
:1021C000DEBF0FBECDBF8C01D62E29E0629F70010D
:1021D0001124FA013197E730F10558F4EE50FF4E23
:1021E0000C94383745117711AD11E41125126512A1
:1021F0008512DC0112968C918823C1F130E020E039
:10220000D8011C96ED91FC911D97EE0DFF1DE20F7C
:10221000F31F808113969C91992331F190E095955D
:10222000879580832F5F3F4F2830310549F7F801AC
:1022300084859585E80EF91E8FEFD70118968C934B
:1022400081E028960FB6F894DEBF0FBECDBFDF91B8
:10225000CF911F910F91FF90EF90DF90CF90BF90A3
:10226000AF909F908F900895880FDBCF87E090E02C
:10227000D8011C96ED91FC91EE0DFF1DE80FF91FA2
:10228000208121830197A0F7D2CFFC01828188238E
:10229000E1F030E020E0D8011C96ED91FC911D9713
:1022A000EE0DFF1DE20FF31F808113969C91992381
:1022B00041F0880F80832F5F3F4F2830310559F759
:1022C000B6CF90E095958795F5CF81E090E0D80165
:1022D0001C96ED91FC91EE0DFF1DE80FF91F20817A
:1022E0003197208301968830910589F7A0CFFC01B2
:1022F000C28085898823F9F040E0C801CC20C1F074
:102300000E94EF098983CC20C1F020E0CC24C39443
:10231000C20E4C2D6D2DC8010E94FD0F2C2D2730B3
:10232000A9F7298147E06D2DC8010E94EA0F7FCFF0
:102330000E941C0AE7CF1982E6CF87E090E0D8011F
:102340001C96ED91FC91EE0DFF1DE80FF91F208109
:10235000220F2083019798F7E4CFFC01C280858982
:102360008823D9F047E0C801CC20A1F00E94EF09F2
:102370008983CC20A1F028E0CC24CA94C20E4C2D35
:102380006D2DC8010E94FD0F2C2DC110F5CF2981A4
:1023900040E0C9CF0E941C0AEBCF1982EACF30E09F
:1023A00020E0D8011C96ED91FC91EE0DFF1DE20F8F
:1023B000F31F808190E09595879580832F5F3F4F35
:1023C0002830310571F7E3CFFC0182818823C1F009
:1023D000B12CA12CD8011C96CD90DC90CE0CDF1C2A
:1023E000CA0CDB1CF60180810E943F03D6018C934E
:1023F000BFEFAB1ABB0AE8E0AE16B10459F717CF2E
:1024000030E020E047E050E0D8011C968D919C918F
:102410008E0D9F1DFC01E20FF31FD080BA01621BDD
:10242000730B860F971FDC018C918083D8011C965B
:10243000ED91FC91EE0DFF1DE60FF71FD0822F5F8F
:102440003F4F2430310501F7F2CEFC018281882311
:1024500029F130E020E047E050E0D8011C968D9152
:102460009C918E0D9F1DFC01E20FF31FD080BA01DD
:10247000621B730B860F971FDC018C918083D80140
:102480001C96ED91FC91EE0DFF1DE60FF71FD0821B
:102490002F5F3F4F2430310501F7C9CEB12CA12C5D
:1024A000F801C484D584CE0CDF1CCA0CDB1CD60119
:1024B0008C910E943F03F6018083FFEFAF1ABF0AA1
:1024C00028E0A216B10461F7B2CECE0101965C01FC
:1024D0004C0187E0C82E4C2D6D2DC8010E947C0A4E
:1024E000D4018D934D01CA94BFEFCB12F4CFC12C10
:1024F000F50121915F014C2D6D2DC8010E94EA0F5D
:10250000C394F8E0CF12F4CF92CE90E080E0D801EF
:102510001C96ED91FC91EE0DFF1DE80FF91F208137
:102520002095208301968830910589F780CECF923F
:10253000DF92EF92FF920F931F93CF93DF93EC0103
:10254000DD24D394F12CE12C01E010E0B9E0CB2E96
:10255000CE010E94900E98010E2C02C0220F331F54
:102560000A94E2F7E0E090E08B85E81798F5EC9D9F
:10257000A0011124AC85BD85A40FB51F18966C91E0
:1025800070E062237323672B19F16E2F70E0815086
:10259000990B861B970B880F991FAE85BF85A80FD7
:1025A000B91FDC92AC85BD85A40FB51FAE0DBF1D54
:1025B000FC918B858150990B861B970B880F991F77
:1025C0004E855F85840F951FDC011196FC9391E089
:1025D000EF5FCACF992319F0CE010E94180DBFEF0B
:1025E000EB1AFB0AD39488E0E816F10409F0B0CFA7
:1025F00080E099E02B85821748F4EC85FD85899F62
:10260000E00DF11D112410868F5FF4CFDF91CF9183
:102610001F910F91FF90EF90DF90CF900895CF938F
:10262000DF93C9E078E05FEF4617B0F06C9F900150
:102630001124FC01A485B585A20FB31FFD01D72F7E
:102640001192DA95E9F7DC011C96ED91FC91E20F0D
:10265000F31F50876F5FE8CFFC012489222321F00C
:10266000DF91CF910C949712DF91CF9108956F92E3
:102670007F928F929F92AF92BF92CF92DF92EF9212
:10268000FF920F931F93CF93DF93CDB7DEB72997B8
:102690000FB6F894DEBF0FBECDBF8C01E62EF42E30
:1026A0005901D12C461708F4D5C0DC015496DC90B2
:1026B000549754961C9224303105B0F522303105E0
:1026C000C8F52130310509F4DBC0D80155968C914D
:1026D000882309F486C06F2D660F660F660F695F49
:1026E000C8010E94830AC82EAE2CB12C8F2D0F2C4E
:1026F000000C990B8A159B050CF489C050E040E052
:102700006F2DC8010E94CF1099249A949F0C47E026
:10271000692DC8010E947C0A282F40E06F2DC80156
:102720000E94D10FF92CE2CF2430310561F028301E
:10273000310558F6A5016E2DC8010E94CF10E39413
:10274000FE14C0F77EC0642F70E0AE2CB12C4B019C
:102750008A189B08BFEF8B1A9B0A97FE03C0EFEF06
:102760008E1A9E0A95948794712C29E0C22E472DCB
:1027700050E0481559050CF0CFC0F8012485358587
:10278000FA01EA0DFB1DCE9EC001CF9E900D1124D3
:10279000820F931FFC01DE0111966C2C01900D92AB
:1027A0006A94E1F7FB01E41BF50BCE9EA001CF9EDE
:1027B000500D1124F901E40FF51FDC018C2D01905F
:1027C0000D928A95E1F7F801A485B585A40FB51F90
:1027D000FE0131968C2D01900D928A95E1F773944C
:1027E000C6CFF801A288B388A114B10471F06F2D8F
:1027F000660F660F660F695FC8010E94830A482F43
:1028000070E060E08F2DF5010995C12C6DCFD801E6
:102810005096ED91FC915197309749F055968C91D7
:10282000811105C070E060E08E2D0995C82EB501BC
:1028300083E0660F771F8A95E1F74C2DC8010E944F
:10284000E00FD8015496DC92DD2009F46FC0C80176
:102850000E9497128D2D29960FB6F894DEBF0FBEF9
:10286000CDBFDF91CF911F910F91FF90EF90DF903F
:10287000CF90BF90AF909F908F907F906F90089572
:10288000FC0185898823A9F1660F660F660FC801D0
:102890000E94830AC82E41E050E06E2DC8010E94BC
:1028A000CF10BB24B394BE0C40E06B2DC8010E9436
:1028B0007C0A282F47E06E2DC8010E94D10FEB2C17
:1028C000FB1448F7D8015096ED91FC915197309741
:1028D00049F055968C91811105C061E070E08F2D13
:1028E0000995C82EB8E0FB9EB0011124695F7F4FA7
:1028F000A4CFA288B388A114B10461F0660F660F5B
:10290000660FC8010E94830A482F61E070E08E2D97
:10291000F5010995C12CBFCF44E050E06E2DC801F0
:102920000E94CF10E394FE14B8F78BCFDD24D3942C
:1029300091CFCF93DF93EC014CA16BA1461720F010
:10294000888199810E940F138D8D882351F027E093
:1029500030E04CA16BA188819981DF91CF910C94DB
:102960003713DF91CF910895CF93DF93C0E0D4E484
:1029700080911204C81760F480910F0490911004A4
:10298000CD9F800D911D11240E949914CF5FF0CF2F
:10299000DF91CF910895CF92DF92EF92FF920F9344
:1029A0001F93CF93DF93EC01D62EC42E790180E0E4
:1029B0004617E0F02A30310508F069C0CE010E94C8
:1029C000900E92E0E916F10409F453C0C0F4E1144A
:1029D000F10429F1F1E0EF16F10409F443C0D394B6
:1029E000CD1478F7CE010E94180D81E0DF91CF91D0
:1029F0001F910F91FF90EF90DF90CF90089583E0AB
:102A0000E816F104E9F194E0E916F10441F781E0F8
:102A10000115110509F480E0819599E006C081E077
:102A20000115110509F080E09CE04D2D50E02B854B
:102A30002150330B241B350B220F331F6E857F85EE
:102A4000260F371FF90190832B852150330B241B50
:102A5000350B220F331F4E855F85240F351FF9017B
:102A60008183BDCF802F083011050CF087E09BE0FB
:102A7000DCCF802F003111050CF08FE09AE0D5CF2C
:102A800081E00115110509F480E09FE0CECF81E0DF
:102A90000130110509F080E0FBE0EF16F10449F088
:102AA0008C8B0130110509F0A0CFCE010E94971246
:102AB0009CCF8D8B9ACF0F931F939B018A01FC01B2
:102AC0004385415060E00E94CB141F910F910895FF
:102AD0000F931F93FC0161A3062F10E022E030E06A
:102AE00044A163A1808191810E94CB141F910F9119
:102AF00008950F931F93CF93FC01A081B1815A9643
:102B0000CC9186A9C80F83A98C17A0F48F0184A942
:102B100095A9009711F00E94DA37F801C3AB8C2F0A
:102B200090E0009711F481E090E00E943E37F801B8
:102B300095AB84ABCF911F910F910895CF92DF9207
:102B4000EF92FF920F931F93CF93DF937C016B0162
:102B5000EA01CA0101960E943E378C010097F1F00C
:102B6000AE01B6010E946338F801EC0FFD1F108220
:102B7000D701ED91FC910084F185E02DB801C701EA
:102B80000995C8010E94DA37CE01DF91CF911F91DC
:102B90000F91FF90EF90DF90CF900895D0E0C0E0CC
:102BA000F3CFCF92DF92EF92FF920F931F93CF93C9
:102BB0006C017B01C42F8901DC01D196ED91FC9160
:102BC000309709F1808191818E159F05C1F40280B3
:102BD000F381E02D80818C1708F4C82F4C2F50E032
:102BE000BF016F5F7F4FC8010E9463388C2FCF9168
:102BF0001F910F91FF90EF90DF90CF900895048088
:102C0000F581E02DDDCFF6018081918122AD33ADDC
:102C1000DC0156964D915C912417350751F0211532
:102C2000310511F42FE930E0FC01378B268B0E942F
:102C300048090115110509F448C0D6012D913C91B0
:102C4000F901878D90A1B0E0A0E0438D548DE4168A
:102C5000F506A0F1658D768D6E157F0578F1668994
:102C60007789FB01E80FF91FE416F50659F0E491A6
:102C70008E0F911DA11DB11D0196A11DB11D4F5FAC
:102C80005F4FEFCF4491C41710F50196A11DB11D00
:102C9000A801801B910B642F601B6C1708F0A6CF56
:102CA000BC01640F751FD9015696ED91FC91E60F9A
:102CB000F71FE491DA01ED93AD01EDCF4C2F50E019
:102CC00070E060E0C8010E946C38C0E08FCFC49112
:102CD000DCCF1F93CF93DF93EC01142F2CA93DA9D8
:102CE0004BA90E94D115112389F0882379F090E037
:102CF0002EA9921758F42BA9821730F4ECA9FDA93C
:102D0000E80FF11D10828F5F9F5FF2CFDF91CF91AF
:102D10001F9108950F931F93CF93DF93EC018B01C5
:102D2000EEA5FFA541E08181811101C040E06081F5
:102D300070E0CE010E946916F801808328A19C8D65
:102D400021FD10C0992359F0288D398D253031058A
:102D500081F4682F8CA99DA90E9490030AC02A8D36
:102D60003B8DF4CF9923B9F0288D398D253031056D
:102D700081F788A180FF06C0F80160818CA99DA918
:102D80000E94AA03CE010E948A0A81E0DF91CF91BE
:102D90001F910F9108952A8D3B8DE8CF0F931F93BC
:102DA000CF93DF93EC01FB011082ACA5BDA5BFA7BB
:102DB000AEA7109719F08C91811108C081E088AB03
:102DC00080E0DF91CF911F910F91089518AA8C8D0B
:102DD00098A191FD10C0882359F0888D998D059791
:102DE00081F40D900020E9F71297BFA7AEA709C0A4
:102DF0008A8D9B8DF4CF882331F1888D998D05972D
:102E000081F7AEA5BFA541E011968C911197811174
:102E100001C040E08B016C9170E0CE010E94691608
:102E2000F801808328A19C8D21FD13C0992371F0A6
:102E3000288D398D2530310599F4682F8CA99DA9ED
:102E40000E9490030DC08A8D9B8DD9CF2A8D3B8D1A
:102E5000F1CF992399F0288D398D2530310569F707
:102E600088A180FF06C0F80160818CA99DA90E94FD
:102E7000AA03CE010E948A0A81E0A3CF2A8D3B8D4E
:102E8000ECCFCF92DF92EF92FF920F931F93CF93ED
:102E9000DF93EC010E949914C988DA887E0187E3E8
:102EA000E80EF11CB701CE010E94CE1619AE18AE85
:102EB00086018B899C89081719077CF18FA928AD99
:102EC00039AD8217130611F081110AC01FAA88A913
:102ED000811104C0B701CE010E948A1619AE18AE46
:102EE0008FA9882331F38881998148AD59AD9A0122
:102EF0002F5F3F4FECA9FDA9E40FF51F4D8D39AFB2
:102F000028AF442341F040814095B8010E94E00F72
:102F100001501109CECF4081F8CFDF91CF911F91A1
:102F20000F91FF90EF90DF90CF900895FF920F9355
:102F30001F93CF93DF93EC01F62E8D859E8544235E
:102F400009F462C08430910530F5019758F18D8500
:102F50009E85059721F483E090E09E878D87CE01C2
:102F60000E9441170DA11EA12FA18AA59BA5820F2A
:102F7000911D27FD9A9580179107E1F04D8D4195A0
:102F8000B801888199810E94E00F8FA1080F111D5F
:102F900087FD1A95E9CF0597D1F285E090E09E87ED
:102FA0008D872CC0CE010E94BA0A83E090E09E87F4
:102FB0008D87CDCFFF2069F06DA17EA10617170781
:102FC00041F04D8D81E048274195888199810E948B
:102FD000E00F8DA19EA12FA1022E000C330B4AA55C
:102FE0005BA5420F531F8417950721F445E050E07D
:102FF0005E874D87820F931F9EA38DA3DF91CF9194
:103000001F910F91FF9008958430910500F501976D
:1030100000F1CE010E94411708A519A56DA17EA15E
:103020008FA1082E000C990B9B01280F391F201728
:103030003107B9F04D8D4195B801888199810E9481
:10304000E00F8FA1080F111D87FD1A95E7CF059797
:1030500051F5CE010E94BA0A83E090E09E878D87E9
:10306000D8CFFF2079F02AA53BA5820F931F6817C0
:10307000790741F04D8D81E04827419588819981FC
:103080000E94E00F8DA19EA12FA1022E000C330BF8
:103090004AA55BA5420F531F8417950709F0AACFD5
:1030A00046E050E0A5CF86E090E079CFAF92BF92A6
:1030B000CF92DF92EF92FF920F931F93CF93DF9304
:1030C000EC01F62E8D859E85442309F46EC0843074
:1030D000910580F50197A8F1CE010E949914CE01C7
:1030E0000E944117CBA088E0C89E60011124EE2405
:1030F000E394F11002C050E8E52E0DA11EA18CA1B1
:1031000090E0019643E0880F991F4A95E1F7C816B1
:10311000D906ACF5A880B9806C2DC5010E94830A40
:10312000101624F5FF2001F1880F9D8D91118E2935
:103130000150F6CF059781F285E090E09E878D875C
:1031400029C087E090E09EA38DA310E000E02BE073
:1031500030E04CA16BA1888199810E94CB1483E05F
:1031600090E09E878D87B8CF8695DFCF482FB60138
:10317000C5010E94E00F8FEFC81AD80ABECF011513
:10318000110521F485E090E09E878D87015011099B
:103190001EA30DA3DF91CF911F910F91FF90EF9090
:1031A000DF90CF90BF90AF9008958430910560F587
:1031B000019760F10BA188E0089F8001112430E89D
:1031C000E32EF11002C0EE24E3948CA190E001966E
:1031D00023E0880F991F2A95E1F708171907FCF4D7
:1031E000C880D980602FC6010E94830A482FFF2023
:1031F000A1F046958D8D81114E29B801C6010E941E
:10320000E00F0F5F1F4FE1CF0597B1F41EA21DA283
:1032100083E090E09E878D87CDCF440FEBCF8DA1CB
:103220009EA18730910521F426E030E03E872D876E
:1032300001969EA38DA3AECF86E090E07FCFCF9284
:10324000DF92EF92FF921F93CF93DF93EC01D42E86
:103250008D859E85662309F458C084309105A8F5B4
:103260000197D0F1CE010E9441172DA13EA1283037
:10327000310569F1E8A4F9A481E090E001C0880F6C
:103280002A95EAF7182FD11010952FA18AA59BA592
:10329000820F911D27FD9A958E159F0549F1C880D3
:1032A000D9806E2DC6010E94830A9D8D412F9923DE
:1032B000E9F04095482BB701C6010E94E00F8FA1AD
:1032C000E80EF11C87FDFA94E0CF059759F285E0EE
:1032D00090E09E878D8711C0CE010E94BA0A1EA27F
:1032E0001DA283E090E09E878D87BCCF4823E3CF6B
:1032F0008DA19EA101969EA38DA3DF91CF911F91D9
:10330000FF90EF90DF90CF9008958430910598F56D
:10331000019798F1CE010E9441178DA19EA110E066
:1033200097FD05C011E001C0110F8A95EAF7E8A4E6
:10333000F9A4D11010952FA18AA59BA5820F911DEC
:1033400027FD9A958E159F0531F1C880D9806E2D85
:10335000C6010E94830A9D8D412F9923D1F040958B
:10336000482BB701C6010E94E00F8FA1E80EF11CA7
:1033700087FDFA94E0CF0597C1F4CE010E94BA0A06
:1033800087E090E09EA38DA383E090E09E878D87E9
:10339000C1CF4823E6CF8DA19EA197FF04C026E0B0
:1033A00030E03E872D870197A6CF86E090E091CF51
:1033B000FF920F931F93CF93DF93EC01F42E8D8533
:1033C0009E85662309F444C08430910538F5019741
:1033D00060F1CE010E9441172DA13EA18AA59BA5B7
:1033E00028173907E9F008A519A58FA1082E000CA8
:1033F000990B2DA13EA14AA55BA5480F591F401767
:10340000510709F464C0F11018C002171307C1F482
:103410008FA1080F111D87FD1A95E7CF0597C9F2F7
:1034200085E090E09E878D8756C0CE010E94BA0A43
:1034300083E090E09E878D87CCCF0217130741F77A
:103440004D8D4195B801888199810E94E00FE0CFB0
:103450008430910500F5019700F1CE010E944117DB
:1034600008A519A54AA55BA58FA1082E000C990BEC
:103470002DA13EA1BA01680F791F6017710701F1F4
:10348000F11013C00217130799F48FA1080F111D33
:1034900087FD1A95E7CF059721F5CE010E94BA0A5C
:1034A00083E090E09E878D87D8CF0217130769F7D6
:1034B0004D8D4195B801888199810E94E00FE5CF3B
:1034C0002417350724F446E050E05E874D87820FCD
:1034D000931F9EA38DA3DF91CF911F910F91FF901A
:1034E000089586E090E09ECFEF92FF920F931F9396
:1034F000CF93DF93EC01162F8D859E85442309F42D
:1035000088C08330910528F00397B1F185E090E001
:103510002AC069897A898B899C899B01281B390B70
:10352000C90137FD01969595879501969EA38DA3B8
:103530001123B9F04D8D11E041274195681B790B9E
:10354000888199810E94E00F4D8D412741956B89BB
:103550007C898DA19EA1680F791F888199810E9425
:10356000E00F83E090E09E878D87DF91CF911F91E0
:103570000F91FF90EF9008958DA19EA197FDC6CF6A
:10358000CE010E944117F12CE12C6DA17EA1E6161F
:10359000F706C4F44D8D41956B897C896E0D7F1DB6
:1035A000888199810E94E00F4D8D419569897A89C2
:1035B0006E197F09888199810E94E00F3FEFE31A1D
:1035C000F30AE3CF615071097EA36DA3112369F261
:1035D00077FDCBCF4D8D11E0412741958B899C899B
:1035E000680F791F888199810E94E00F4D8D4127D6
:1035F000419569897A898DA19EA1681B790B888183
:103600009981DF91CF911F910F91FF90EF900C94D2
:10361000E00F8330910531F108F077C0019708F48D
:1036200077C0CE010E949914CE010E9441171EA2BC
:103630001DA2112399F04D8D01E040274195698924
:103640007A89888199810E94E00F4D8D40274195AC
:103650006B897C89888199810E94E00F83E090E0EA
:103660009E878D872DA13EA169897A898B899C8946
:10367000AB01481B590BCA0157FD019695958795DB
:10368000821793070CF444C04D8D4195621B730B58
:10369000888199810E94E00F4D8D41956B897C89CD
:1036A0008DA19EA1680F791F888199810E94E00FEA
:1036B0002DA13EA12F5F3F4F3EA32DA3112309F45F
:1036C00054CF69897A898B899C89AB01481B590B36
:1036D000CA0157FD019695958795821793070CF4BB
:1036E00044CF4D8D11E041274195621B730B8881BA
:1036F00099810E94E00F4D8D412741956B897C890E
:103700008DA19EA1680F791F7ACF059709F489CF03
:1037100086E090E028CFCF92DF92EF92FF920F9356
:103720001F93CF93DF93EC01162F8D859E85442345
:1037300009F458C084309105B0F5019708F43AC0F7
:10374000CE010E9441172DA13EA190E080E0111111
:1037500002C08FEF90E02817390739F1E8A4F9A4E7
:103760002FA18AA59BA5820F911D27FD9A958E15E5
:103770009F0581F10D8DC880D9806E2DC6010E94F4
:10378000830A011180954DA1111140954823011123
:103790004095B701C6010E94E00F8FA1E80EF11C11
:1037A00087FDFA94DDCF059759F285E090E09E877A
:1037B0008D8771C0CE010E94BA0A8FEF90E011117F
:1037C00002C081E090E09EA38DA383E090E09E87FD
:1037D0008D87B6CF8DA19EA1112309F457C0959571
:1037E000879557C08430910550F5019750F1CE016F
:1037F0000E944117E8A4F9A42FA18AA59BA5820FD6
:10380000911D27FD9A958E159F0559F10D8DC88044
:10381000D9806E2DC6010E94830A011180954DA1A9
:1038200011114095482301114095B701C6010E942E
:10383000E00F8FA1E80EF11C87FDFA94DDCF05970C
:10384000C1F4CE010E94BA0A81E090E0111102C0D9
:103850008FEF90E09EA38DA383E090E09E878D87FD
:10386000C6CF8DA19EA1111107C0009709F0B7CF57
:1038700006C086E090E09BCF8F3F910539F426E0AB
:1038800030E03E872D87112309F4A9CF880F991FB7
:1038900081609EA38DA3DF91CF911F910F91FF9027
:1038A000EF90DF90CF900895AF92BF92CF92DF92CA
:1038B000EF92FF920F931F93CF93DF93EC01F62EBD
:1038C000E42E8D859E85222309F4D9C0843091058C
:1038D00088F50197B0F1CE010E949914CE010E94A3
:1038E00041170DA11EA1EE2009F464C0EE24E3945B
:1038F000F11002C070E8E72ECDA0DEA08CA190E010
:10390000019663E0880F991F6A95E1F70817190778
:10391000BCF5A880B980602FC5010E94830A9C2D48
:10392000191624F5FF2001F1880F2D8D21118E2904
:103930009150F6CF059779F285E090E09E878D87CC
:1039400093C087E090E09EA38DA310E000E02BE001
:1039500030E04CA16BA1888199810E94CB1483E057
:1039600090E09E878D87B7CF8695DFCFB8016C1921
:103970007D09482FC5010E94E00F0F5F1F4FBCCF8C
:1039800010E000E08DA19EA1081719070CF061C09E
:103990004D8D41956CA128E0629FB0011124695FB3
:1039A0007F4F601B710B888199810E94E00F0F5F30
:1039B0001F4FE8CF8CA138E0839FC00111249C01E8
:1039C000201B310B8901085F1F4FEE24E394F11097
:1039D00002C050E8E52ECDA0DEA08BA138E0839F89
:1039E000C001112408171907ECF0A880B980602FD6
:1039F000C5010E94830A9C2D191654F4FF2031F052
:103A0000880F2D8D21118E299150F6CF8695F9CFF3
:103A1000B8016C0D7D1D482FC5010E94E00F0150BB
:103A20001109D9CF10E000E08DA19EA10817190758
:103A300084F44D8D41956BA188E0689FB0011124FD
:103A4000600F711F888199810E94E00F0F5F1F4FE7
:103A5000EBCF8DA19EA1009721F425E030E03E87B9
:103A60002D8701979EA38DA3DF91CF911F910F9179
:103A7000FF90EF90DF90CF90BF90AF90089584308B
:103A8000910580F5019788F1EE20C1F10CA128E0A5
:103A9000029F800111240A5F1F4F40E8B42EF110ED
:103AA00002C0BB24B394C880D9808BA138E0839F27
:103AB000C0011124081719070CF450C0602FC6016B
:103AC0000E94830A482FFF20B9F046958D8D811101
:103AD0004B29B8016F5F7F4FC6010E94E00F015074
:103AE0001109E1CF059709F059C01EA21DA283E07C
:103AF00090E09E878D87C8CF440FE8CF0BA188E068
:103B0000089F800111240F5F1F4F30E8B32EF11082
:103B100002C0BB24B394C880D9808CA190E00196E8
:103B200023E0880F991F2A95E1F708171907B4F4C5
:103B3000602FC6010E94830A482FFF2069F0469536
:103B40008D8D81114B29B80161507109C6010E9408
:103B5000E00F0F5F1F4FDFCF440FF2CF88819981B5
:103B60004D8D4195EE2091F06BA128E0629FB00150
:103B700011240E94E00F8DA19EA18730910521F4B0
:103B800026E030E03E872D8701966CCF6CA138E0AF
:103B9000639FB0011124695F7F4FEBCF86E090E017
:103BA000CDCECF92DF92FF920F931F93CF93DF93EF
:103BB000EC01F62E8D859E85442309F484C0833064
:103BC000910570F0039751F185E090E09E878D8715
:103BD000DF91CF911F910F91FF90DF90CF900895CB
:103BE0001EA21DA2CE010E949914FF2099F04D8DB6
:103BF00011E04127419569897A89888199810E94DC
:103C0000E00F4D8D412741956B897C898881998191
:103C10000E94E00F83E090E09E878D87CE010E9496
:103C20009914CE010E9441170B891C8989899A89B0
:103C3000801B910B97FD01966C01D594C7948DA1C3
:103C40009EA1080F191FC816D9060CF4BDCF0F5F2F
:103C50001F4F69897A898DA19EA19B01281B390B71
:103C60000217130744F44D8D4195B801888199815D
:103C70000E94E00FECCF01969EA38DA3FF2009F4D4
:103C8000A7CFC816D9060CF4A3CF4D8D11E041275C
:103C90004195681B790B888199810E94E00F4D8DB9
:103CA000412741956B897C898DA19EA1680F791F61
:103CB00088819981DF91CF911F910F91FF90DF90C3
:103CC000CF900C94E00F83309105D1F1A0F50197CE
:103CD000A0F189899A892B893C89821B930B97FDD6
:103CE0000196959587959EA38DA3CE010E94991468
:103CF000CE010E944117FF20D9F04D8D11E04127E0
:103D0000419569897A898DA19EA1681B790B88816B
:103D100099810E94E00F4D8D412741956B897C89E7
:103D20008DA19EA1680F791F888199810E94E00F63
:103D300083E090E04BCF059761F286E090E046CFBC
:103D40008DA19EA197FDF9CF4D8D419569897A8905
:103D5000681B790B888199810E94E00F4D8D4195F8
:103D60006B897C898DA19EA1680F791F88819981BB
:103D70000E94E00F8DA19EA101979EA38DA3FF201D
:103D800009F426CF97FD24CF4D8D11E041274195B1
:103D900069897A897ECF8F929F92AF92BF92CF929C
:103DA000DF92EF92FF920F931F93CF93DF93EC017B
:103DB000F62E8D859E85442309F4E0C08E01095CB2
:103DC0001F4F35E0C32ED12C82309105E9F050F021
:103DD0008330910509F441C0049709F4A8C085E037
:103DE00090E00FC0BE01695C7F4FCE010E94CE16ED
:103DF000811103C086E090E004C019AE18AE83E0E4
:103E000090E09E878D870DC01FAA88A98823B1F0F6
:103E1000DE86CD868D859E852FA9211116C005973A
:103E200099F7DF91CF911F910F91FF90EF90DF9065
:103E3000CF90BF90AF909F908F900895B801CE0122
:103E40000E948A168111E6CFE3CF059751F319AE90
:103E500018AE83E090E09E878D878FA9882329F193
:103E600021E02F2530E04CA16BA1888199810E942F
:103E70003713888199816D8D2CA93DA948AD59AD25
:103E8000662301F1BA016F5F7F4F79AF68AF240FEE
:103E9000351FF90140814095FF20F1F06BA1F8E05A
:103EA0006F9FB00111240E94E00F2FA988AD99AD3A
:103EB0002817190609F0B5CF88A9811115C082E02D
:103EC00090E09FCFBA016F5F7F4F79AF68AF240F4B
:103ED000351FF9014081E0CF6CA128E0629FB0015D
:103EE0001124695F7F4FDFCF29893A89FF20B1F024
:103EF0008F859889A901481B590BCA0101962BA1EE
:103F000058E0259F80199109112499AF88AF1816A0
:103F100019060CF064CF84E090E073CF8CA1E8E048
:103F20008E9FC00111240796821B930BEECF21E0D8
:103F3000262730E04CA16BA1888199810E9437131C
:103F4000888199814D8D4195FF2081F06BA1F8E02A
:103F50006F9FB00111240E94E00F88AD99AD0197C9
:103F600099AF88AF892B09F05CCF39CF6CA128E0DD
:103F7000629FB0011124695F7F4FEDCF84309105BE
:103F800039F0059709F036CF84E090E09E878D8761
:103F900021E02F2530E04CA16BA1888199810E94FE
:103FA0003713888199814D8D4195FF2009F445C0D3
:103FB0006BA138E0639FB00111240E94E00F0CA1B7
:103FC00010E0ABA0B12C6801CA18DB088FEFC81A4B
:103FD000D80A23E0CC0CDD1C2A95E1F78E8D9F8D4D
:103FE000009721F08C159D0508F46C010F5F1F4FA1
:103FF00083E0000F111F8A95E1F793E0AA0CBB1C28
:104000009A95E1F7FF2021F145017401EA18FB08B8
:1040100080169106DCF5682D888199810E94830ABB
:1040200090E02D8D222389F02FEF30E08217930747
:1040300069F5EFEF8E1A9E0AE8CF6CA158E0659FF4
:10404000B0011124695F7F4FB8CF30E020E0EECFA0
:1040500001501109F12CE12C0A151B05BCF0602F51
:10406000888199810E94830A90E02D8D222359F046
:104070002FEF30E08217930749F401501109FFEF49
:10408000EF1AFF0AE9CF30E020E0F4CFEC14FD0492
:1040900008F0B0CEC6CE2F923F924F925F926F92B1
:1040A0007F928F929F92AF92BF92CF92DF92EF92C8
:1040B000FF920F931F93CF93DF93CDB7DEB72D976A
:1040C0000FB6F894DEBF0FBECDBF9A8389837D8380
:1040D0006C83DC0198968C919897882309F48AC0A8
:1040E0009596ED91FC918689978975A764A7E981DA
:1040F000FA8120A5222329F005A0F6A1E02D978BB7
:10410000868BA981BA8198968C919897882349F0DB
:104110009596ED91FC911086178212861186148671
:104120001386E981FA8180A5882359F005A0F6A1BC
:10413000E02D81E090E0918F808F138E128E168695
:10414000158629813A812C5F3F4F3F832E8306E0FD
:1041500010E0E5E06E2E712CF3E04F2E512C50E074
:1041600040E06AE070E08E819F810E945B15212C07
:104170001B82A981BA8198968C919897281610F085
:104180000C9449299596ED91FC9124E4229EE00D32
:10419000F11D1124FD87EC8712A22585368581E06B
:1041A0002630310509F4CBC1848D882331F1878114
:1041B0009085B0E0A0E02530310529F12FB7F894C3
:1041C0004091B2025091B3026091B4027091B50275
:1041D0002FBFEC85FD85C380D480E580F6804C1927
:1041E0005D096E097F09481759076A077B0758F56B
:1041F00080E0A5C181E090E07ACFAC85BD851996BD
:104200008D919C91D6CF2FB7F8944091B2025091E6
:10421000B3026091B4027091B5022FBFEC85FD85A9
:10422000C380D480E580F6804C195D096E097F0952
:10423000C384D484F12CE12C4C155D056E057F05FB
:1042400008F0BCCFD5CFAC85BD8512969C9091105F
:10425000CFCF2FB7F8948091B2029091B302A09182
:10426000B402B091B5022FBFEC85FD8583839483A2
:10427000A583B68381E082A3A4A4B5A4A114B1044C
:1042800009F453C185859685009709F433C00697D4
:1042900009F44BC1AC85BD855C963C905C9733209E
:1042A00009F4F8C05896ED91FC913197EC31F10585
:1042B00008F095C3E25AFE4D0C94383774227D22E3
:1042C000A422A722AE228027B1222724F224352659
:1042D0007F25BF26FD2804290E2907291729102923
:1042E0001929202923292A292D29352938293C292A
:1042F0003F294629AC85BD859F96BC92AE929E977C
:104300009496EC90B8E0EB9E70011124F70137967B
:104310007F01AC85BD8593968C91B8E08B9FE018AA
:10432000F1081124EFEFEE1AFE0AD12CC12CD501B1
:104330006D915D016623C1F0EC85FD8524A935A949
:1043400070E043A9CF010E94D11590E0C80ED91E9C
:10435000892B69F3D5018C91882349F3EC85FD8580
:1043600086A9C80ED11CE3CFAC85BD855096DC92E2
:10437000CE921F9756968D919C918130910509F4AC
:1043800055C028F0029771F1992493941DC0EC85D3
:10439000FD8584A190E0019673E0880F991F7A95BE
:1043A000E1F79C0121503109328B218BEC14FD0483
:1043B00090F483A1F8E08F9FC0011124AC85BD85E6
:1043C00054969C938E93539781E09826EC85FD85B7
:1043D000958A848F5FCF8C199D09EC85FD85948B20
:1043E000838BD2CFAC85BD8593968C91B8E08B9FA3
:1043F000C0011124EC85FD85948B838BEC14FD04A6
:1044000068F484A1F8E08F9FC00111240796AC8561
:10441000BD8552969C938E935197D6CF0197C80E27
:10442000D91EEC85FD85D28AC18AAECFAC85BD850B
:1044300093962C91B8E02B9F90011124EC14FD046D
:1044400098F4EC85FD8584A1F8E08F9FC0011124CC
:104450000796AC85BD8552969C938E935197549642
:104460003C932E935397B0CFEC18FD08F694E79445
:10447000E20EF31EEC85FD85F48AE38AF1E0CF1AA3
:10448000D108CE0CDF1CAC85BD855296DC92CE9255
:1044900051977ACFAC85BD855A96ED91FC913197B5
:1044A000EC31F10508F09BC2E85AFD4D0C94383709
:1044B00064257D22A422A722AE228027B1222724B0
:1044C000F22435267F25BF26FD2804290E29072939
:1044D000172910291929202923292A292D29352985
:1044E00038293C293F2946298C859D850E94411702
:1044F000EC85FD857686658606C0432D61E08C855A
:104500009D850E945618AC85BD855C968C915C9704
:104510001D962D913C91882329F081E025303105AD
:1045200009F480E0EC85FD85848F81E0AC85BD8554
:104530001D962D913C912630310509F059CEBB8155
:10454000B82BBB83239415CE432D60E0D8CF432DE9
:1045500061E08C859D850E94CB1ED5CF432D60E008
:10456000F8CFEC85FD8585859685332009F4EAC072
:104570007F01F7E3EF0EF11C82309105A1F130F0DD
:10458000039709F45BC0AC85BD8566C26C857D85EB
:10459000695C7F4F8C859D850E94CE16811103C07A
:1045A000AC85BD85CAC68C859D850E949914EC8515
:1045B000FD8511AE10AE83A1F8E08F9FC0011124DC
:1045C000AC85BD8596969C938E93959751968D91CB
:1045D0009C9152979B969C938E939A971E965C9271
:1045E0004E921D9790CFEC85FD8517AA80A9882350
:1045F00081F0AC85BD851E967C926E921D97EC85F0
:10460000FD858585968527A921110BC0059759F74A
:104610007ACFB7018C859D850E948A168111EFCFD4
:10462000E8CF059709F46FCFAC85BD85D9961C926C
:104630001E92D8971E965C924E921D97EC85FD8532
:1046400065A176A182A593A504A8F5A9E02DAC8566
:10465000BD85D8962D913C91D997E20FF31F4081EB
:104660006817790751F48D919C9111975D962C9163
:10467000211140950E94E00F3BCF411135C0AC8520
:10468000BD8596969C938E939597EC85FD8585A127
:1046900096A122A533A582179307C1F420AD31ADB1
:1046A00043A1F8E04F9FA0011124AC85BD859696EB
:1046B0005C934E9395972F5F3F4FD9963C932E93E3
:1046C000D89701979B969C938E939A97EC85FD853E
:1046D00027A980AD91AD2817190609F014CF82E003
:1046E00090E0968785870FCFEC85FD85458D4195B8
:1046F000808191810E94E00FAC85BD8595966D917A
:104700007C9196976F5F7F4F96967C936E9395976B
:104710008D919C9111975D96EC915D97D4962D911A
:104720003C91D597D8964D915C91240F351FEE237F
:1047300031F0F901408140950E94E00FA6CFD901E8
:104740004C91FACF8130910508F42ACF843091053D
:1047500068F0059709F024CFEC85FD858189928961
:1047600093A782A796A385A356864586AC85BD856B
:10477000CD90DC9011975D968C9188248A94912C31
:10478000811102C0912C812CEC85FD85A388B48811
:10479000AC85BD859596ED90FC906E2DC6010E946E
:1047A000830AEC85FD8522A533A58815190451F4EB
:1047B0002A153B053CF0C901019793A782A736A3B0
:1047C00025A3E6CF2F5F3F4F2A153B050CF4E8CE1B
:1047D000EC85FD8524A1F8E02F9F90011124295F2D
:1047E0003F4FE216F3063CF4B7016F5F7F4F482F4F
:1047F000C6010E94E00FAC85BD855D964C915D972A
:10480000419595966D917C9196978D919C910E9482
:10481000E00FEC85FD8525A136A12F5F3F4F36A324
:1048200025A384A190E0019643E0880F991F4A9543
:10483000E1F72817390709F066CE82A593A59C01F8
:104840002150310933A722A796A385A35CCEEC851E
:10485000FD8585859685332009F467C084309105F0
:1048600008F042C0019708F443C08C859D850E94E2
:1048700099148C859D850E944117EC85FD8593A038
:10488000990C990C990C88248394AC85BD859596D8
:10489000ED90FC90969794968C91949790E0019669
:1048A00023E0880F991F2A95E1F7A92CB12CA816AF
:1048B000B90674F5CD90DC90692DC6010E94830A7B
:1048C000482F50E087E090E08E199F093320D9F0FF
:1048D00002C0559547958A95E2F7B501C6010E9439
:1048E000E00F38249394D1CF059709F4BECF00CEC2
:1048F000AC85BD8596961C921E9295971E965C92ED
:104900004E921D97B2CF01C0440F8A95EAF7E5CFCA
:10491000BFEFEB1AFB0AEC85FD85F6A2E5A2F8E0F5
:10492000EF16F10409F0EFCD2ECE8430910598F505
:104930000197A0F1AC85BD8593969C90990C990C3C
:10494000990C8824839433243394EC85FD85E5A069
:10495000F6A084A190E00196B3E0880F991FBA9564
:10496000E1F7A92CB12CA816B9065CF5C080D1805E
:10497000692DC6010E94830A482F50E08820D9F093
:1049800001C0440FEA94EAF7B501C6010E94E00FA6
:1049900083249394DACF059709F002CEE1E0F0E0AA
:1049A000AC85BD859696FC93EE9395971E965C928A
:1049B0004E921D97BFCF02C055954795EA94E2F7F6
:1049C000E3CFFFEFEF1AFF0AAC85BD859696FC9208
:1049D000EE929597B8E0EB16F10409F094CDEC85D2
:1049E000FD8508C4EC85FD8585859685332009F411
:1049F0005AC08430910500F58230910500F500978A
:104A000081F1019709F0BFCDAC85BD8595966D917B
:104A10007C919697CB01019696969C938E93959751
:104A2000CD010E9468158C859D850E944117EC85FB
:104A3000FD855686458667CD059709F0A4CDAC85E2
:104A4000BD8595966D917C9196979A968D919C9146
:104A50009B9786179707ECF41E967C926E921D9793
:104A600052CDAC85BD8596961C921E9295979196D7
:104A70008C91919790E09B969C938E939A97CD0101
:104A80000E94991421E030E0EC85FD85368725876A
:104A90003ACDCB010196EC85FD8596A385A3CF0188
:104AA0000E94681530CD8430910598F40197A0F0EC
:104AB000EC85FD8565A176A1CB01019777FFEBCF52
:104AC00062A5CF010E9468158C859D850E9499146E
:104AD00067CD059709F064CDEC85FD8561A1862F32
:104AE00090E093A782A796A385A3CF010E946815A3
:104AF0008C859D850E944117AC85BD856FCDEC8569
:104B0000FD85858596858230910509F45DC048F460
:104B1000009769F00197B9F031102EC186E090E05E
:104B2000E6C08330910509F492C00597A9F7AC85DA
:104B3000BD8596961C921E929597E1E0F0E01E9638
:104B4000FC93EE931D97AC85BD8595968D919C91B8
:104B50009697019696969C938E9395979396EC9044
:104B6000B8E0EB9E70011124DD24D394EC85FD8523
:104B700025A136A184A190E00196A3E0880F991F9A
:104B8000AA95E1F7E816F90694F4C701837099270E
:104B90008217930744F4458D4D254195B7018081D7
:104BA00091810E94E00FFFEFEF1AFF0ADFCF82E052
:104BB00090E02430310509F0A6CCAC85BD851E9669
:104BC0009C938E931D979FCC8C859D850E949914F4
:104BD000332021F08C859D850E944117EC85FD8551
:104BE00085A196A1019796A385A3E3A0F8E0EF9E87
:104BF00070011124DD24D394AC85BD8595962D914B
:104C00003C91969794968C91949790E00196F3E05E
:104C1000880F991FFA95E1F7E816F906A4F4C70181
:104C2000837099278217930754F45D964C915D9792
:104C30004D254195B7018D919C910E94E00FBFEFEA
:104C4000EB1AFB0AD9CF232B09F05DCCF0CE8C8573
:104C50009D850E949914332009F412C18C859D858D
:104C60000E94411785E090E0A8CFAC85BD851D96D8
:104C70008D919C918230910509F43CC038F08330CD
:104C8000910509F46EC0059709F0F8C0EC85FD8523
:104C9000E3A0F8E0EF9E70011124AC85BD859496E9
:104CA0008C91949790E00196E3E0880F991FEA9524
:104CB000E1F7E816F906CCF45D96BC905D97CD90CF
:104CC000DC906E2DC6010E94830AB110809545E5E7
:104CD000E0FE4AEA482BB1104095B701C6010E9498
:104CE000E00FBFEFEB1AFB0AD8CF82E090E0EC8533
:104CF000FD85F7CC8C859D850E949914332021F089
:104D00008C859D850E944117AC85BD859396EC905E
:104D1000B8E0EB9E70011124EC85FD8584A190E044
:104D2000019673E0880F991F7A95E1F7E816F90666
:104D30000CF0E2CEB58CC080D1806E2DC6010E94F1
:104D4000830AB11080954AEAE0FE45E5482BB11090
:104D50004095B701C6010E94E00FFFEFEF1AFF0A6E
:104D6000DBCF8C859D850E949914332009F4D6CE23
:104D70008C859D850E94411785E090E0B8CFEC8539
:104D8000FD85858596858430910508F07CC0019766
:104D900008F47CC0EC85FD8516A215A20E9478332C
:104DA0004B015C010E947833688779878A879B87EB
:104DB000AC85BD859596CD90DC90BFEFCB1ADB0A14
:104DC000EC85FD85D6A2C5A2C501B4012BE030E07B
:104DD00040E050E00E947E3670E09B01205A3D4F3B
:104DE0007901D901BC90688579858A859B8528E001
:104DF00030E040E050E00E947E368B2D90E0062EA1
:104E000002C0959587950A94E2F780FF05C0B8E83F
:104E1000CB16B3E1DB0614F281E090E001C0880F0D
:104E20006A95EAF7B82AF701B0828C859D850E94C1
:104E30004117AC85BD8596961C921E9295979396C8
:104E4000BC90BB0CBB0CBB0CEC85FD8584A190E039
:104E5000019663E0880F991F6A95E1F7CB2CD12C5E
:104E6000C816D90614F1E0E6F2E081918F3F09F00F
:104E70004ACB28E632E02E173F07B9F73110F2CEC1
:104E800086E090E09ACE059709F046CEE0E6F2E0A3
:104E900011922BE632E02E173F07D1F7AC85BD8586
:104EA0001E965C924E921D9775CFAC85BD85ED9098
:104EB000FC906B2DC7010E94830AAC85BD85959639
:104EC000ED91FC91E05AFD4F4081311001C04095B9
:104ED0004823B601C7010E94E00FEC85FD8585A13E
:104EE00096A101968B30910521F096A385A3B394EA
:104EF000ABCFAC85BD8596961C921E929597F7CF49
:104F0000AC85BD851D968D919C913110F6C1843084
:104F1000910508F0EEC1019778F58C859D850E947A
:104F2000BA0AEC85FD8580A591A522A533A5821737
:104F3000930724F431A720A793A782A7AC85BD854A
:104F4000DE968D919C91DF97892B09F4F6C1EC8553
:104F5000FD8583A1F8E08F9FC00111240197AC85E6
:104F6000BD8596969C938E93959797961C9297974E
:104F70001E965C924E921D978C859D850E944117CE
:104F8000EC85FD8585A196A1019696A385A3F12CBC
:104F90006F01F1E4CF0ED11CD6012C91EC85FD857B
:104FA00065A176A1822F90E0F21608F0E1C04F2DA6
:104FB00050E0641B750B84A190E0019633E0880FEC
:104FC000991F3A95E1F7681779072CF583A1F8E066
:104FD0008F9FC001112468177907ECF0AC85BD855F
:104FE0008D919C91119797963C91979732039001E0
:104FF0001124420F531FDE96ED91FC91DF97E40FD1
:10500000F51F5D962C91222309F4B0C0E4914E2F38
:1050100040950E94E00FF394BFCFEC85FD8517A269
:1050200084A190E0019653E0880F991F5A95E1F70B
:1050300096A385A3568645868C859D850E9441173B
:10504000AC85BD8595968D919C9196970197969686
:105050009C938E939597F12C6D01B0E4CB0ED11CEF
:10506000F6012081AC85BD8595966D917C919697D2
:10507000F21608F03AC0EF2DF0E06E0F7F1F949605
:105080008C91949790E0019643E0880F991F4A9580
:10509000E1F7681779072CF593968C91B8E08B9F10
:1050A000C001112468177907E4F0AC85BD858D91A6
:1050B0009C91119797964C9197974203A0011124C8
:1050C0004E0F5F1FDC96ED91FC91DD97E40FF51F0D
:1050D0005D962C91222339F0E4914E2F40950E9449
:1050E000E00FF394BDCF4491FACF7B01B1E0EB1A0E
:1050F000F108EC85FD8582A593A5E816F9065CF01C
:10510000458D4195B701808191810E94E00FF1E0CA
:10511000EF1AF108EECFAC85BD8597968C919797E5
:105120008F5F97968C939797082E000C990BFD0133
:10513000EE5BFF4F20812817190609F014F49796AB
:105140001C92EC85FD8583A1F8E08F9FC00111249E
:10515000D6012C91821B91090197EC85FD8525A133
:1051600036A12817390709F0CEC9C4C9449151CFD7
:105170007B01E81AF90AEC85FD8582A593A5E8165E
:10518000F9065CF0458D4195B701808191810E94BF
:10519000E00FF1E0EF1AF108EECFAC85BD859796F0
:1051A0008C9197978F5F97968C939797082E000C0A
:1051B000990BFD01ED5BFF4F20812817190609F0BF
:1051C00014F497961C92EC85FD8584A1F8E08F9FDE
:1051D00090011124295F3F4FD6018C91820F932FAC
:1051E000911D0196EC85FD8525A136A1281739076B
:1051F00009F089C91687058786C9432D60E08C852B
:105200009D850E9496177FC9432D61E0F8CF41E04C
:10521000632D8C859D850E94D81975C940E0F8CF13
:1052200041E0632D8C859D850E941F196CC940E06B
:10523000F8CF432D60E08C859D850E94741A63C968
:10524000432D61E0F8CF432D60E08C859D850E9461
:10525000D11D59C9432D61E0F8CF232D41E061E014
:105260008C859D850E94541C4EC9232D40E0F7CFAC
:10527000232D41E060E0F4CF232D40E0FBCF432D10
:1052800061E08C859D850E948B1B3DC9432D60E0AC
:10529000F8CF41E050E06AE070E08E819F810E948B
:1052A0005B15EB81E1110C94AF20EC81FD81019045
:1052B0000020E9F73197CF012C813D81821B930BB0
:1052C0002D960FB6F894DEBF0FBECDBFDF91CF9104
:1052D0001F910F91FF90EF90DF90CF90BF90AF9014
:1052E0009F908F907F906F905F904F903F902F9006
:1052F0000895059709F411CE53C98430910510F52E
:10530000019708F099CE8C859D850E94BA0AEC859C
:10531000FD8580A591A522A533A58217930724F4C6
:1053200031A720A793A782A7AC85BD85DC968D9178
:105330009C91DD97892B09F070CE1E961C930E93DD
:105340001D97E1C8059709F477CE1DC91F920F92EA
:105350000FB60F9211242F933F934F935F936F9348
:105360007F938F939F93AF93BF93EF93FF9380911E
:10537000C4029091C502A091C602B091C702892BC8
:105380008A2B8B2BD1F19091BF02E091C002F0915A
:10539000C1028081892780838091C4029091C502D7
:1053A000A091C602B091C702181619061A061B066C
:1053B0009CF48091C4029091C502A091C602B09164
:1053C000C7020197A109B1098093C4029093C50255
:1053D000A093C602B093C702FF91EF91BF91AF9126
:1053E0009F918F917F916F915F914F913F912F91FD
:1053F0000F900FBE0F901F901895809100010E9492
:105400005C05EACF1F920F920FB60F9211242F93D3
:105410003F934F935F936F937F938F939F93AF933C
:10542000BF93EF93FF938CE493E00E944D04FF91B0
:10543000EF91BF91AF919F918F917F916F915F910C
:105440004F913F912F910F900FBE0F901F90189585
:105450001F920F920FB60F9211242F938F939F9349
:10546000EF93FF93E0915C03F0915D038081E09105
:105470006203F091630382FD1BC0908180916503FC
:105480008F5F8F7320916603821741F0E09165036F
:10549000F0E0E45BFC4F958F80936503FF91EF9103
:1054A0009F918F912F910F900FBE0F901F90189585
:1054B0008081F4CF1F920F920FB60F9211242F9379
:1054C0003F938F939F93AF93BF938091B20290913C
:1054D000B302A091B402B091B5023091B10223E0C1
:1054E000230F2D3758F50196A11DB11D2093B10250
:1054F0008093B2029093B302A093B402B093B5022A
:105500008091B6029091B702A091B802B091B90211
:105510000196A11DB11D8093B6029093B702A0938E
:10552000B802B093B902BF91AF919F918F913F9113
:105530002F910F900FBE0F901F90189526E8230F04
:105540000296A11DB11DD2CF1F920F920FB60F92DE
:1055500011242F933F934F935F936F937F938F9378
:105560009F93AF93BF93EF93FF938091B900887F90
:10557000803609F44AC0F0F5883209F4A7C018F55E
:10558000803109F49BC0B8F4882309F4F9C088304D
:1055900009F494C0FF91EF91BF91AF919F918F91CA
:1055A0007F916F915F914F913F912F910F900FBE1F
:1055B0000F901F901895883109F488C0803251F7F8
:1055C0008093240314C0803409F49DC040F48033D8
:1055D000B9F38833F9F68093240385ECB0C08035A5
:1055E00009F485C0883509F496C0883499F60E947C
:1055F000580ED0CF883909F48CC038F5883729F097
:1056000050F4883611F0803729F683E08093460302
:105610001092B00257C0883809F47BC0803919F065
:10562000803809F0B7CF8091B002803208F071C0A5
:10563000E091B00281E08E0F8093B0028091BB00B8
:10564000F0E0E057FD4F80833DC0803B39F0E0F44F
:10565000803A09F479C0883A09F09CCF84E08093BD
:10566000460310928F0210928E02E091BC02F091DC
:10567000BD02099580918E0281110FC081E0809357
:105680008E0210926E0209C0803C09F4A6CF883CBD
:1056900009F4A3CF883B09F07DCFE0918F0281E030
:1056A0008E0F80938F02F0E0E259FD4F808180934E
:1056B000BB0090918F0280918E0229C080912103BE
:1056C0008093BB0085EC8093BC0064CF9091230352
:1056D00080912203981758F5E091230381E08E0F03
:1056E00080932303F0E0E050FD4F8081E9CFE0910B
:1056F000230381E08E0F809323038091BB00F0E0B1
:10570000E050FD4F808390912303809122039817EE
:10571000C8F285E8D8CFE091230381E08E0F809313
:1057200023038091BB00F0E0E050FD4F8083809127
:10573000250381115CCF81E08093200384EA80936C
:10574000BC001092460326CF85EC8093BC001092DB
:1057500046038091B002803230F4E091B002F0E074
:10576000E057FD4F10826091B00270E0E091BA0204
:10577000F091BB0280E992E009951092B0020ACF45
:105780001092240334CFECE4F3E01382128288EE0B
:1057900093E0A0E0B0E084839583A683B78327E1FC
:1057A00031E03183208325EC30E03587248724ECF9
:1057B00030E03787268720EC30E0318B208B21ECDE
:1057C00030E0338B228B22EC30E0358B248B26ECBF
:1057D00030E0378B268B118E128E138E148EE3E100
:1057E000F4E01382128284839583A683B78389E2CF
:1057F00091E091838083AFE1B4E01196FC93EE9346
:1058000012961C92EAEEF3E0138212828BE391E08F
:10581000918380838AE0818789E0828788E083871B
:10582000148689EE93E09687858784E0878791E0E8
:10583000908F21E030E03583248396831782108691
:1058400087A30895CF93DF93CDB7DEB76A970FB6DE
:10585000F894DEBF0FBECDBF789484B5826084BD5E
:1058600084B5816084BD85B5826085BD85B5816064
:1058700085BD80916E00816080936E0010928100E2
:10588000809181008260809381008091810081609D
:10589000809381008091800081608093800080915E
:1058A000B10084608093B1008091B00081608093EA
:1058B000B00080917A00846080937A0080917A00B1
:1058C000826080937A0080917A00816080937A0070
:1058D00080917A00806880937A001092C10061E024
:1058E0008DE00E94880560E082E00E94880560E00B
:1058F00083E00E94880560E084E00E9488058EE0D5
:105900000E94C4058C016C01990FEE08FF084AE063
:10591000C701B601F7FE0DC06DE28CE493E00E9472
:105920006F0466277727CB016C197D098E099F09C3
:105930004AE00E94B60D0E94B00D60E08FE00E9428
:10594000880560E080E10E94880562E086E00E94B0
:10595000880561E085E00E948805E0915C03F09194
:105960005D0382E08083E0915803F0915903108237
:10597000E0915A03F0915B038FEC808310926403F3
:10598000E0916003F091610386E08083E0915E0323
:10599000F0915F03808180618083E0915E03F091EC
:1059A0005F03808188608083E0915E03F0915F03F4
:1059B000808180688083E0915E03F0915F03808145
:1059C0008F7D808368E471E08CE493E00E940B0E8D
:1059D00063E571E08CE493E00E940B0E8FE591E0AB
:1059E0000E94FC0D1092DB021092DA021092DD028E
:1059F0001092FF020E949B068DEC93E09093BD02F3
:105A00008093BC028EEC93E09093BB028093BA0229
:105A10008CE591E00E945C068D8B88E08E8B87E59B
:105A200091E00E945C068F8B8FE591E00E945C06FE
:105A3000888F82E691E00E945C06898F85E691E07E
:105A40000E945C068A8FCE0145960E94130ECE01FD
:105A500045960E944D0C0E94B00D0E94420C81118F
:105A60002AC080912104882309F4DBC168E671E033
:105A70008CE493E00E940B0E6091210470E090E0B2
:105A800080E04AE00E94B60D0E94B00D33E0E32EA4
:105A9000F12C61E08DE00E942E0564EF71E080E062
:105AA00090E00E94FE0560E08DE00E942E0521E05E
:105AB000E21AF10871F70E94420C811121C089EAB3
:105AC00091E00E94FC0D80E00E94040C682F6F772B
:105AD00080E00E94950823E0E22EF12C61E08DE049
